:10000000932AFF3FFF3FFF3FFF00030E8301A6003F
:100010000A08A5008A017008A1007108A0008B1CC5
:100020001E2822082304240403191D282208A700DF
:100030002308A80076228A110A128B108312031358
:100040002108F0002008F10025088A00260E830010
:10005000FF0E7F0E0900D428831203133308013AE0
:10006000031D40283208F1000130F0007108031927
:100070003D28F00D7010FF3E3728700885044E288B
:100080003208F1000130F000710803194B28F00D1F
:100090007010FF3E4528F00970088505EB283308ED
:1000A000013A031D61283208F1000130F0007108A7
:1000B00003195E28F00D7010FF3E58287008860462
:1000C0006F283208F1000130F000710803196C2824
:1000D000F00D7010FF3E6628F00970088605EB28C9
:1000E0003308013A031D82283208F1000130F00084
:1000F000710803197F28F00D7010FF3E79287008F1
:10010000870490283208F1000130F00071080319CB
:100110008D28F00D7010FF3E8728F00970088705C4
:10012000EB283308013A031DA3283208F1000130FF
:10013000F00071080319A028F00D7010FF3E9A28F6
:1001400070088804B1283208F1000130F00071080D
:100150000319AE28F00D7010FF3EA828F0097008B2
:100160008805EB283308013A031DC4283208F10042
:100170000130F00071080319C128F00D7010FF3E26
:10018000BB2870088904D2283208F1000130F00041
:1001900071080319CF28F00D7010FF3EC928F0092F
:1001A00070088905EB28EB28831203133108003A05
:1001B00003192C283108013A03194F283108023A53
:1001C000031970283108033A031991283108043AB9
:1001D0000319B228D328080083120313B301372967
:1001E0003208F0000508B30070080319FB28B30CAF
:1001F000B313FF3EF5280130B3054C293208F00057
:100200000608B300700803190929B30CB313FF3EA5
:1002100003290130B3054C293208F0000708B30068
:10022000700803191729B30CB313FF3E11290130CD
:10023000B3054C293208F0000808B3007008031910
:100240002529B30CB313FF3E1F290130B3054C29F8
:100250003208F0000908B300700803193329B30C01
:10026000B313FF3E2D290130B3054C294C29310829
:10027000003A0319F0283108013A0319FE28310821
:10028000023A03190C293108033A03191A293108D3
:10029000043A0319282936293308F000080083128C
:1002A00003132F08B1003008B200EC207008013AA7
:1002B000031D61292F08B1003008B200B3012B20C3
:1002C00068292F08B1003008B2000130B3002B209C
:1002D0000800252A831203132E08003A031D8029E3
:1002E0002D08F1000130F000710803197B29F00D91
:1002F0007010FF3E7529F0097008831685058F2957
:1003000083122D08F1000130F000710803198C29C7
:10031000F00D7010FF3E86297008831685043C2A74
:1003200083122E08003A031DA5292D08F100013083
:10033000F00071080319A029F00D7010FF3E9A29F2
:10034000F009700883168605B42983122D08F10080
:100350000130F00071080319B129F00D7010FF3E53
:10036000AB297008831686043C2A83122E08003AB3
:10037000031DCA292D08F1000130F000710803198E
:10038000C529F00D7010FF3EBF29F00970088316D3
:100390008705D92983122D08F1000130F00071087A
:1003A0000319D629F00D7010FF3ED029700883166E
:1003B00087043C2A83122E08003A031DEF292D08DA
:1003C000F1000130F00071080319EA29F00D7010F6
:1003D000FF3EE429F009700883168805FE29831280
:1003E0002D08F1000130F00071080319FB29F00D10
:1003F0007010FF3EF5297008831688043C2A83128A
:100400002E08003A031D142A2D08F1000130F000D7
:10041000710803190F2AF00D7010FF3E092AF00928
:10042000700883168905232A83122D08F1000130F4
:10043000F00071080319202AF00D7010FF3E1A2AEF
:100440007008831689043C2A3C2A831203132C0863
:10045000003A03196A292C08013A031990292C083B
:10046000023A0319B5292C08033A0319DA292C0892
:10047000043A0319FF29242A0800831203132808C9
:100480008A002708820008000B168B1708008312C9
:1004900003132908AC002A08AD00AE016921080049
:1004A000831203132908AC002A08AD000130AE0006
:1004B00069210800831203132908A2002A08A30057
:1004C0002B08A4002C0808008312031329186B2A98
:1004D000831601136D2A8316011708000130831259
:1004E0000313AF000130B0004F2108008312031343
:1004F00028088A00270882000800831203132908AD
:10050000AC002A08AD000130AE00692108003D2290
:100510008A110A128000840AA70A0319A80AF003A4
:10052000031D872A0800C022013083120313A9008B
:100530000130AA004722013083120313A900AA0147
:100540005022013083120313A900AA017D22013039
:1005500083120313A90064226E308312A9000230B3
:10056000AA000030AB0000305A224422B62AB72A33
:10057000FF3FFF3FFF3FFF3FFF3F003400340034A9
:1005800022308400033083120313F000BD30A70033
:100590000230A80087220800FF3FFF3FFF3FFF3FD8
:02400E004A2F37
:00000001FF
