:10000000662AFF3FFF3FFF3FFF00030E8301A6006C
:100010000A08A7008A017008A0000B1D26280B11F2
:100020007D308100210AF0007008A100220AF00052
:100030007008A2001E302202031C20282514A201F1
:100040003C302102031C2628A514A1012008F00041
:1000500027088A00260E8300FF0E7F0E0900D8288D
:10006000831203132C08013A031D44282B08F100C6
:100070000130F000710803194128F00D7010FF3EA7
:100080003B287008850452282B08F1000130F0004D
:10009000710803194F28F00D7010FF3E4928F00930
:1000A00070088505EF282C08013A031D65282B08E8
:1000B000F1000130F000710803196228F00D701092
:1000C000FF3E5C287008860473282B08F10001307D
:1000D000F000710803197028F00D7010FF3E6A28B7
:1000E000F00970088605EF282C08013A031D8628C0
:1000F0002B08F1000130F000710803198328F00D7E
:100100007010FF3E7D287008870494282B08F100AA
:100110000130F000710803199128F00D7010FF3EB6
:100120008B28F00970088705EF282C08013A031D79
:10013000A7282B08F1000130F00071080319A4284A
:10014000F00D7010FF3E9E2870088804B5282B081B
:10015000F1000130F00071080319B228F00D7010A1
:10016000FF3EAC28F00970088805EF282C08013AFA
:10017000031DC8282B08F1000130F0007108031995
:10018000C528F00D7010FF3EBF2870088904D628DE
:100190002B08F1000130F00071080319D328F00D8D
:1001A0007010FF3ECD28F00970088905EF28EF2870
:1001B000831203132A08003A031930282A08013A47
:1001C000031953282A08023A031974282A08033A03
:1001D000031995282A08043A0319B628D7280800D5
:1001E00083120313AC013B292B08F0000508AC0077
:1001F00070080319FF28AC0CAC13FF3EF92801303E
:10020000AC0550292B08F0000608AC007008031953
:100210000D29AC0CAC13FF3E07290130AC05502969
:100220002B08F0000708AC00700803191B29AC0C60
:10023000AC13FF3E15290130AC0550292B08F00006
:100240000808AC00700803192929AC0CAC13FF3E58
:1002500023290130AC0550292B08F0000908AC0017
:10026000700803193729AC0CAC13FF3E312901305B
:10027000AC05502950292A08003A0319F4282A0805
:10028000013A031902292A08023A031910292A08F7
:10029000033A03191E292A08043A03192C293A297A
:1002A0002C08F00008000F2A831203132C08003AD0
:1002B000031D6A292B08F1000130F00071080319B1
:1002C0006529F00D7010FF3E5F29F0097008831654
:1002D0008505792983122B08F1000130F00071089F
:1002E00003197629F00D7010FF3E702970088316EF
:1002F0008504262A83122C08003A031D8F292B0817
:10030000F1000130F000710803198A29F00D701016
:10031000FF3E8429F0097008831686059E29831202
:100320002B08F1000130F000710803199B29F00D32
:100330007010FF3E9529700883168604262A8312C2
:100340002C08003A031DB4292B08F1000130F000FD
:1003500071080319AF29F00D7010FF3EA929F009AB
:10036000700883168705C32983122B08F10001301A
:10037000F00071080319C029F00D7010FF3EBA2972
:10038000700883168704262A83122C08003A031D5E
:10039000D9292B08F1000130F00071080319D42984
:1003A000F00D7010FF3ECE29F00970088316880505
:1003B000E82983122B08F1000130F00071080319BD
:1003C000E529F00D7010FF3EDF29700883168804C0
:1003D000262A83122C08003A031DFE292B08F1005F
:1003E0000130F00071080319F929F00D7010FF3E7B
:1003F000F329F0097008831689050D2A83122B084A
:10040000F1000130F000710803190A2AF00D701094
:10041000FF3E042A700883168904262A262A83129E
:1004200003132A08003A031954292A08013A031928
:100430007A292A08023A03199F292A08033A03193C
:10044000C4292A08043A0319E9290E2A080083124C
:10045000031324088A002308820008008312031370
:100460002808AA002908AB00AC012F20080083123D
:1004700003132808AA002908AB00AC015321080087
:10048000831203132808AA002908AB00F020700883
:10049000013A031D522A2808AA002908AB00AC0122
:1004A0002F20592A2808AA002908AB000130AC00E7
:1004B0002F20080027228A110A128000840AA30A2A
:1004C0000319A40AF003031D5A2A08008312031318
:1004D000A101A2010130A800A90137220130831235
:1004E0000313A8000130A90037220130831203133F
:1004F000A800A9012E220130A8000130A9002E2257
:10050000A51025100730831681007D3083128100ED
:100510008B168B17A51C912A0130A800A901402237
:10052000A510251C992A0130A8000130A9004022FD
:1005300025108A2A9A2AFF3FFF3FFF3FFF3FFF3FD8
:02400E004A2F37
:00000001FF
