:100000000B29FF3FFF3FBF28831203132E08003A3E
:10001000031D1A282D08F1000130F00071080319A2
:100020001528F00D7010FF3E0F28F0097008831698
:100030008505292883122D08F1000130F000710890
:1000400003192628F00D7010FF3E20287008831633
:100050008504D62883122E08003A031D3F282D0858
:10006000F1000130F000710803193A28F00D70100A
:10007000FF3E3428F0097008831686054E28831247
:100080002D08F1000130F000710803194B28F00D24
:100090007010FF3E4528700883168604D628831208
:1000A0002E08003A031D64282D08F1000130F000ED
:1000B000710803195F28F00D7010FF3E5928F009F0
:1000C000700883168705732883122D08F10001300C
:1000D000F000710803197028F00D7010FF3E6A28B7
:1000E000700883168704D62883122E08003A031D51
:1000F00089282D08F1000130F000710803198428C7
:10010000F00D7010FF3E7E28F009700883168805F8
:10011000982883122D08F1000130F00071080319AE
:100120009528F00D7010FF3E8F2870088316880404
:10013000D62883122E08003A031DAE282D08F100A0
:100140000130F00071080319A928F00D7010FF3E6E
:10015000A328F009700883168905BD2883122D088D
:10016000F1000130F00071080319BA28F00D701089
:10017000FF3EB428700883168904D628D628831237
:1001800003132C08003A031904282C08013A031918
:100190002A282C08023A03194F282C08033A03197D
:1001A00074282C08043A03199928BE2808008312E1
:1001B000031328088A00270882000800831203130B
:1001C0002908AC002A08AD000130AE000320080069
:1001D0000B168B170800D7208A110A128000840A98
:1001E000A70A0319A80AF003031DEB2808008312CD
:1001F00003132918FE2883160113002983160117FB
:100200000800831203132908A0002A08A1002B0864
:10021000A2002C0808004821023083120313AC000E
:100220000230AD00AE010320013083120313AC0095
:10023000AD010130AE000320F930831603139200A4
:100240000C3083129700230895000430920001308F
:10025000A900AA01DE20013083120313A900F720B0
:10026000FF308312A900FF30AA000030AB0000303D
:100270000121E8203A293B29FF3FFF3FFF3FFF3F95
:10028000FF3F00340034003440348034C034FF3445
:1002900020308400073083120313F0004130A700A0
:1002A0000130A800EB200800FF3FFF3FFF3FFF3F6A
:02400E004A2F37
:00000001FF
